{
  "contractName": "AnimalOwnership",
  "abi": [
    {
      "anonymous": false,
      "inputs": [
        {
          "indexed": true,
          "internalType": "address",
          "name": "account",
          "type": "address"
        }
      ],
      "name": "AddedToBreederList",
      "type": "event"
    },
    {
      "anonymous": false,
      "inputs": [
        {
          "indexed": false,
          "internalType": "address",
          "name": "owner",
          "type": "address"
        },
        {
          "indexed": false,
          "internalType": "address",
          "name": "approved",
          "type": "address"
        },
        {
          "indexed": false,
          "internalType": "uint256",
          "name": "tokenId",
          "type": "uint256"
        }
      ],
      "name": "Approval",
      "type": "event"
    },
    {
      "anonymous": false,
      "inputs": [
        {
          "indexed": false,
          "internalType": "uint256",
          "name": "animalId",
          "type": "uint256"
        }
      ],
      "name": "BurnAnimal",
      "type": "event"
    },
    {
      "anonymous": false,
      "inputs": [
        {
          "indexed": false,
          "internalType": "uint256",
          "name": "animalId",
          "type": "uint256"
        },
        {
          "indexed": false,
          "internalType": "string",
          "name": "tipe",
          "type": "string"
        },
        {
          "indexed": false,
          "internalType": "string",
          "name": "name",
          "type": "string"
        }
      ],
      "name": "NewAnimal",
      "type": "event"
    },
    {
      "anonymous": false,
      "inputs": [
        {
          "indexed": true,
          "internalType": "address",
          "name": "account",
          "type": "address"
        }
      ],
      "name": "RemovedFromBreederList",
      "type": "event"
    },
    {
      "anonymous": false,
      "inputs": [
        {
          "indexed": false,
          "internalType": "address",
          "name": "from",
          "type": "address"
        },
        {
          "indexed": false,
          "internalType": "address",
          "name": "to",
          "type": "address"
        },
        {
          "indexed": false,
          "internalType": "uint256",
          "name": "tokenId",
          "type": "uint256"
        }
      ],
      "name": "Transfer",
      "type": "event"
    },
    {
      "constant": true,
      "inputs": [
        {
          "internalType": "uint256",
          "name": "",
          "type": "uint256"
        }
      ],
      "name": "animalApprovals",
      "outputs": [
        {
          "internalType": "address",
          "name": "",
          "type": "address"
        }
      ],
      "payable": false,
      "stateMutability": "view",
      "type": "function"
    },
    {
      "constant": true,
      "inputs": [
        {
          "internalType": "uint256",
          "name": "",
          "type": "uint256"
        }
      ],
      "name": "animalToOwner",
      "outputs": [
        {
          "internalType": "address payable",
          "name": "",
          "type": "address"
        }
      ],
      "payable": false,
      "stateMutability": "view",
      "type": "function"
    },
    {
      "constant": true,
      "inputs": [
        {
          "internalType": "uint256",
          "name": "",
          "type": "uint256"
        }
      ],
      "name": "animals",
      "outputs": [
        {
          "internalType": "uint256",
          "name": "animalId",
          "type": "uint256"
        },
        {
          "internalType": "string",
          "name": "tipe",
          "type": "string"
        },
        {
          "internalType": "string",
          "name": "sexe",
          "type": "string"
        },
        {
          "internalType": "string",
          "name": "name",
          "type": "string"
        },
        {
          "internalType": "string",
          "name": "color",
          "type": "string"
        },
        {
          "internalType": "uint8",
          "name": "nb_paws",
          "type": "uint8"
        }
      ],
      "payable": false,
      "stateMutability": "view",
      "type": "function"
    },
    {
      "constant": true,
      "inputs": [
        {
          "internalType": "address",
          "name": "_breeder",
          "type": "address"
        }
      ],
      "name": "isABreeder",
      "outputs": [
        {
          "internalType": "bool",
          "name": "",
          "type": "bool"
        }
      ],
      "payable": false,
      "stateMutability": "view",
      "type": "function"
    },
    {
      "constant": false,
      "inputs": [
        {
          "internalType": "address",
          "name": "_breeder",
          "type": "address"
        }
      ],
      "name": "registerBreeder",
      "outputs": [],
      "payable": false,
      "stateMutability": "nonpayable",
      "type": "function"
    },
    {
      "constant": false,
      "inputs": [
        {
          "internalType": "address",
          "name": "_breeder",
          "type": "address"
        }
      ],
      "name": "removeBreeder",
      "outputs": [],
      "payable": false,
      "stateMutability": "nonpayable",
      "type": "function"
    },
    {
      "constant": true,
      "inputs": [
        {
          "internalType": "address",
          "name": "_owner",
          "type": "address"
        }
      ],
      "name": "balanceOf",
      "outputs": [
        {
          "internalType": "uint256",
          "name": "balance",
          "type": "uint256"
        }
      ],
      "payable": false,
      "stateMutability": "view",
      "type": "function"
    },
    {
      "constant": true,
      "inputs": [
        {
          "internalType": "uint256",
          "name": "_tokenId",
          "type": "uint256"
        }
      ],
      "name": "ownerOf",
      "outputs": [
        {
          "internalType": "address",
          "name": "owner",
          "type": "address"
        }
      ],
      "payable": false,
      "stateMutability": "view",
      "type": "function"
    },
    {
      "constant": false,
      "inputs": [
        {
          "internalType": "address",
          "name": "_from",
          "type": "address"
        },
        {
          "internalType": "address payable",
          "name": "_to",
          "type": "address"
        },
        {
          "internalType": "uint256",
          "name": "_tokenId",
          "type": "uint256"
        }
      ],
      "name": "transferFrom",
      "outputs": [],
      "payable": false,
      "stateMutability": "nonpayable",
      "type": "function"
    },
    {
      "constant": false,
      "inputs": [
        {
          "internalType": "address payable",
          "name": "_to",
          "type": "address"
        },
        {
          "internalType": "uint256",
          "name": "_tokenId",
          "type": "uint256"
        }
      ],
      "name": "transfer",
      "outputs": [],
      "payable": false,
      "stateMutability": "nonpayable",
      "type": "function"
    },
    {
      "constant": false,
      "inputs": [
        {
          "internalType": "address",
          "name": "_to",
          "type": "address"
        },
        {
          "internalType": "uint256",
          "name": "_tokenId",
          "type": "uint256"
        }
      ],
      "name": "approve",
      "outputs": [],
      "payable": false,
      "stateMutability": "nonpayable",
      "type": "function"
    },
    {
      "constant": false,
      "inputs": [
        {
          "internalType": "uint256",
          "name": "_tokenId",
          "type": "uint256"
        }
      ],
      "name": "tokeOwnership",
      "outputs": [],
      "payable": false,
      "stateMutability": "nonpayable",
      "type": "function"
    },
    {
      "constant": true,
      "inputs": [],
      "name": "totalSupply",
      "outputs": [
        {
          "internalType": "uint256",
          "name": "total",
          "type": "uint256"
        }
      ],
      "payable": false,
      "stateMutability": "view",
      "type": "function"
    },
    {
      "constant": false,
      "inputs": [
        {
          "internalType": "uint256",
          "name": "_animalId",
          "type": "uint256"
        }
      ],
      "name": "deadAnimal",
      "outputs": [],
      "payable": false,
      "stateMutability": "nonpayable",
      "type": "function"
    }
  ],
  "bytecode": "0x608060405234801561001057600080fd5b506112a9806100206000396000f3fe608060405234801561001057600080fd5b50600436106100ea5760003560e01c8063998dd3ca1161008c578063d81c513a11610066578063d81c513a146105c0578063d98529781461062e578063d9cb18561461069c578063ec9b6db9146106ca576100ea565b8063998dd3ca14610317578063a9059cbb14610516578063c4f7385214610564576100ea565b806346456c66116100c857806346456c66146101c9578063476fd4741461020d5780636352211e1461025157806370a08231146102bf576100ea565b8063095ea7b3146100ef57806318160ddd1461013d57806323b872dd1461015b575b600080fd5b61013b6004803603604081101561010557600080fd5b81019080803573ffffffffffffffffffffffffffffffffffffffff169060200190929190803590602001909291905050506106f8565b005b610145610858565b6040518082815260200191505060405180910390f35b6101c76004803603606081101561017157600080fd5b81019080803573ffffffffffffffffffffffffffffffffffffffff169060200190929190803573ffffffffffffffffffffffffffffffffffffffff16906020019092919080359060200190929190505050610865565b005b61020b600480360360208110156101df57600080fd5b81019080803573ffffffffffffffffffffffffffffffffffffffff1690602001909291905050506109fa565b005b61024f6004803603602081101561022357600080fd5b81019080803573ffffffffffffffffffffffffffffffffffffffff169060200190929190505050610af3565b005b61027d6004803603602081101561026757600080fd5b8101908080359060200190929190505050610bec565b604051808273ffffffffffffffffffffffffffffffffffffffff1673ffffffffffffffffffffffffffffffffffffffff16815260200191505060405180910390f35b610301600480360360208110156102d557600080fd5b81019080803573ffffffffffffffffffffffffffffffffffffffff169060200190929190505050610c29565b6040518082815260200191505060405180910390f35b6103436004803603602081101561032d57600080fd5b8101908080359060200190929190505050610c72565b60405180878152602001806020018060200180602001806020018660ff1660ff16815260200185810385528a818151815260200191508051906020019080838360005b838110156103a1578082015181840152602081019050610386565b50505050905090810190601f1680156103ce5780820380516001836020036101000a031916815260200191505b50858103845289818151815260200191508051906020019080838360005b838110156104075780820151818401526020810190506103ec565b50505050905090810190601f1680156104345780820380516001836020036101000a031916815260200191505b50858103835288818151815260200191508051906020019080838360005b8381101561046d578082015181840152602081019050610452565b50505050905090810190601f16801561049a5780820380516001836020036101000a031916815260200191505b50858103825287818151815260200191508051906020019080838360005b838110156104d35780820151818401526020810190506104b8565b50505050905090810190601f1680156105005780820380516001836020036101000a031916815260200191505b509a505050505050505050505060405180910390f35b6105626004803603604081101561052c57600080fd5b81019080803573ffffffffffffffffffffffffffffffffffffffff16906020019092919080359060200190929190505050610f28565b005b6105a66004803603602081101561057a57600080fd5b81019080803573ffffffffffffffffffffffffffffffffffffffff169060200190929190505050610fa2565b604051808215151515815260200191505060405180910390f35b6105ec600480360360208110156105d657600080fd5b8101908080359060200190929190505050610ff7565b604051808273ffffffffffffffffffffffffffffffffffffffff1673ffffffffffffffffffffffffffffffffffffffff16815260200191505060405180910390f35b61065a6004803603602081101561064457600080fd5b810190808035906020019092919050505061102a565b604051808273ffffffffffffffffffffffffffffffffffffffff1673ffffffffffffffffffffffffffffffffffffffff16815260200191505060405180910390f35b6106c8600480360360208110156106b257600080fd5b810190808035906020019092919050505061105d565b005b6106f6600480360360208110156106e057600080fd5b810190808035906020019092919050505061110f565b005b3373ffffffffffffffffffffffffffffffffffffffff166001600083815260200190815260200160002060009054906101000a900473ffffffffffffffffffffffffffffffffffffffff1673ffffffffffffffffffffffffffffffffffffffff161461076357600080fd5b816004600083815260200190815260200160002060006101000a81548173ffffffffffffffffffffffffffffffffffffffff021916908373ffffffffffffffffffffffffffffffffffffffff1602179055507f8c5be1e5ebec7d5bd14f71427d1e84f3dd0314c0f7b2291e5b200ac8c7c3b925338383604051808473ffffffffffffffffffffffffffffffffffffffff1673ffffffffffffffffffffffffffffffffffffffff1681526020018373ffffffffffffffffffffffffffffffffffffffff1673ffffffffffffffffffffffffffffffffffffffff168152602001828152602001935050505060405180910390a15050565b6000600380549050905090565b816001600083815260200190815260200160002060006101000a81548173ffffffffffffffffffffffffffffffffffffffff021916908373ffffffffffffffffffffffffffffffffffffffff160217905550600260008373ffffffffffffffffffffffffffffffffffffffff1673ffffffffffffffffffffffffffffffffffffffff16815260200190815260200160002060008154809291906001019190505550600260008473ffffffffffffffffffffffffffffffffffffffff1673ffffffffffffffffffffffffffffffffffffffff16815260200190815260200160002060008154809291906001900391905055507fddf252ad1be2c89b69c2b068fc378daa952ba7f163c4a11628f55a4df523b3ef838383604051808473ffffffffffffffffffffffffffffffffffffffff1673ffffffffffffffffffffffffffffffffffffffff1681526020018373ffffffffffffffffffffffffffffffffffffffff1673ffffffffffffffffffffffffffffffffffffffff168152602001828152602001935050505060405180910390a1505050565b600115156000808373ffffffffffffffffffffffffffffffffffffffff1673ffffffffffffffffffffffffffffffffffffffff16815260200190815260200160002060009054906101000a900460ff16151514610a5657600080fd5b60008060008373ffffffffffffffffffffffffffffffffffffffff1673ffffffffffffffffffffffffffffffffffffffff16815260200190815260200160002060006101000a81548160ff0219169083151502179055508073ffffffffffffffffffffffffffffffffffffffff167f938ef794f4afe55be567004bfe9ac18c6eb39aa9a923ac272d379b8e0b18863a60405160405180910390a250565b600015156000808373ffffffffffffffffffffffffffffffffffffffff1673ffffffffffffffffffffffffffffffffffffffff16815260200190815260200160002060009054906101000a900460ff16151514610b4f57600080fd5b60016000808373ffffffffffffffffffffffffffffffffffffffff1673ffffffffffffffffffffffffffffffffffffffff16815260200190815260200160002060006101000a81548160ff0219169083151502179055508073ffffffffffffffffffffffffffffffffffffffff167fc1448f5e2e05cea974ecfedd2f801913739f5ddb6aaf7e34af16e54ba5df2b4660405160405180910390a250565b60006001600083815260200190815260200160002060009054906101000a900473ffffffffffffffffffffffffffffffffffffffff169050919050565b6000600260008373ffffffffffffffffffffffffffffffffffffffff1673ffffffffffffffffffffffffffffffffffffffff168152602001908152602001600020549050919050565b60038181548110610c7f57fe5b9060005260206000209060060201600091509050806000015490806001018054600181600116156101000203166002900480601f016020809104026020016040519081016040528092919081815260200182805460018160011615610100020316600290048015610d315780601f10610d0657610100808354040283529160200191610d31565b820191906000526020600020905b815481529060010190602001808311610d1457829003601f168201915b505050505090806002018054600181600116156101000203166002900480601f016020809104026020016040519081016040528092919081815260200182805460018160011615610100020316600290048015610dcf5780601f10610da457610100808354040283529160200191610dcf565b820191906000526020600020905b815481529060010190602001808311610db257829003601f168201915b505050505090806003018054600181600116156101000203166002900480601f016020809104026020016040519081016040528092919081815260200182805460018160011615610100020316600290048015610e6d5780601f10610e4257610100808354040283529160200191610e6d565b820191906000526020600020905b815481529060010190602001808311610e5057829003601f168201915b505050505090806004018054600181600116156101000203166002900480601f016020809104026020016040519081016040528092919081815260200182805460018160011615610100020316600290048015610f0b5780601f10610ee057610100808354040283529160200191610f0b565b820191906000526020600020905b815481529060010190602001808311610eee57829003601f168201915b5050505050908060050160009054906101000a900460ff16905086565b3373ffffffffffffffffffffffffffffffffffffffff166001600083815260200190815260200160002060009054906101000a900473ffffffffffffffffffffffffffffffffffffffff1673ffffffffffffffffffffffffffffffffffffffff1614610f9357600080fd5b610f9e338383610865565b5050565b60008060008373ffffffffffffffffffffffffffffffffffffffff1673ffffffffffffffffffffffffffffffffffffffff16815260200190815260200160002060009054906101000a900460ff169050919050565b60016020528060005260406000206000915054906101000a900473ffffffffffffffffffffffffffffffffffffffff1681565b60046020528060005260406000206000915054906101000a900473ffffffffffffffffffffffffffffffffffffffff1681565b6004600082815260200190815260200160002060009054906101000a900473ffffffffffffffffffffffffffffffffffffffff1673ffffffffffffffffffffffffffffffffffffffff163373ffffffffffffffffffffffffffffffffffffffff16146110c857600080fd5b60006001600083815260200190815260200160002060009054906101000a900473ffffffffffffffffffffffffffffffffffffffff16905061110b813384610865565b5050565b61111833610fa2565b61112157600080fd5b6001600082815260200190815260200160002060009054906101000a900473ffffffffffffffffffffffffffffffffffffffff1673ffffffffffffffffffffffffffffffffffffffff163373ffffffffffffffffffffffffffffffffffffffff161461118c57600080fd5b600260003373ffffffffffffffffffffffffffffffffffffffff1673ffffffffffffffffffffffffffffffffffffffff168152602001908152602001600020600081548092919060019003919050555060006001600083815260200190815260200160002060006101000a81548173ffffffffffffffffffffffffffffffffffffffff021916908373ffffffffffffffffffffffffffffffffffffffff16021790555061123a600082610f28565b7f7c21a8b5ee77ae5805ee5bbd0428d87dae7976c0c415dc5c91a7041937a7889d816040518082815260200191505060405180910390a15056fea265627a7a72315820ba1d50fb9ea447492940bdf32412b3766eefc0ae51fbdc55d2ec3abafd54542664736f6c63430005100032",
  "source": "pragma solidity >=0.4.25 <0.7.0;\r\n\r\nimport \"./ERC721.sol\";\r\nimport \"./AnimalLand.sol\";\r\n\r\ncontract AnimalOwnership is ERC721, AnimalLand {\r\n\r\n    mapping (uint256=>address) public animalApprovals;\r\n\r\n    /*\r\n    ** Function to know how many animal(s) have an owner.\r\n    */\r\n    \r\n    function balanceOf(address _owner) public view returns (uint256 balance){\r\n        return ownerAnimalCount[_owner];\r\n    }\r\n\r\n\r\n    /*\r\n    ** Function to know the owner of an animal.\r\n    */\r\n\r\n    function ownerOf(uint256 _tokenId) external view returns (address owner){\r\n\r\n        return animalToOwner[_tokenId];\r\n    }\r\n\r\n\r\n\r\n    /*\r\n    ** Function to transfer an animal from an owner to someone else.\r\n    */\r\n    \r\n    function transferFrom(address _from, address payable _to, uint256 _tokenId) public{\r\n        animalToOwner[_tokenId]=_to;\r\n        ownerAnimalCount[_to]++;\r\n        ownerAnimalCount[_from]--;\r\n        emit Transfer(_from,_to,_tokenId);\r\n    }\r\n\r\n\r\n\r\n    /*\r\n    ** Function to transfer your animal to someone.\r\n    */\r\n\r\n    function transfer(address payable _to, uint256 _tokenId) public{\r\n        require(animalToOwner[_tokenId]==msg.sender);\r\n        transferFrom(msg.sender,_to,_tokenId);\r\n    }\r\n\r\n\r\n\r\n\r\n    /*\r\n    ** Allow to an owner to take an animal from you.\r\n    */\r\n\r\n    function approve(address _to, uint256 _tokenId) external{\r\n        require(animalToOwner[_tokenId]==msg.sender);\r\n        animalApprovals[_tokenId]=_to;\r\n        emit Approval(msg.sender,_to,_tokenId);\r\n\r\n\r\n    }\r\n\r\n\r\n    /*\r\n    ** Function to recover your animal given by the previous function.\r\n    */\r\n\r\n    function tokeOwnership(uint256 _tokenId) public{\r\n        require(msg.sender==animalApprovals[_tokenId]);\r\n        address owner=animalToOwner[_tokenId];\r\n        transferFrom(owner,msg.sender,_tokenId);\r\n\r\n    }\r\n\r\n\r\n    /*\r\n    ** Show how many animals have been created.\r\n    */\r\n\r\n    function totalSupply() public view returns (uint256 total){\r\n        return animals.length;\r\n    }\r\n\r\n\r\n\r\n    /*\r\n    ** Function to burn your token (animal).\r\n    */\r\n\r\n    function deadAnimal(uint256 _animalId) public OnlyBreederListed{\r\n        require(msg.sender==animalToOwner[_animalId]);\r\n        ownerAnimalCount[msg.sender]--;\r\n        animalToOwner[_animalId]=address(0);\r\n        transfer(address(0),_animalId);\r\n        emit BurnAnimal(_animalId);\r\n    }\r\n    \r\n}",
  "sourcePath": "C:\\Users\\Miloj\\TD6-Blockchain\\contracts\\AnimalOwnership.sol",
  "compiler": {
    "name": "solc",
    "version": "0.5.16+commit.9c3226ce.Emscripten.clang"
  },
  "schemaVersion": "3.0.23",
  "updatedAt": "2020-03-10T09:31:42.282Z",
  "devdoc": {
    "methods": {}
  },
  "userdoc": {
    "methods": {
      "isABreeder(address)": {
        "notice": "Check if an address is in the breeder list."
      },
      "registerBreeder(address)": {
        "notice": "Add an address in the breeder list. "
      },
      "removeBreeder(address)": {
        "notice": "Remove an address from the breeder list. "
      }
    }
  }
}