{
  "contractName": "AnimalBAttle",
  "abi": [
    {
      "anonymous": false,
      "inputs": [
        {
          "indexed": true,
          "internalType": "address",
          "name": "account",
          "type": "address"
        }
      ],
      "name": "AddedToBreederList",
      "type": "event"
    },
    {
      "anonymous": false,
      "inputs": [
        {
          "indexed": false,
          "internalType": "uint256",
          "name": "animalId",
          "type": "uint256"
        }
      ],
      "name": "AnimalWin",
      "type": "event"
    },
    {
      "anonymous": false,
      "inputs": [
        {
          "indexed": false,
          "internalType": "address",
          "name": "owner",
          "type": "address"
        },
        {
          "indexed": false,
          "internalType": "address",
          "name": "approved",
          "type": "address"
        },
        {
          "indexed": false,
          "internalType": "uint256",
          "name": "tokenId",
          "type": "uint256"
        }
      ],
      "name": "Approval",
      "type": "event"
    },
    {
      "anonymous": false,
      "inputs": [
        {
          "indexed": false,
          "internalType": "uint256",
          "name": "animalId",
          "type": "uint256"
        }
      ],
      "name": "BurnAnimal",
      "type": "event"
    },
    {
      "anonymous": false,
      "inputs": [
        {
          "indexed": false,
          "internalType": "uint256",
          "name": "animalId",
          "type": "uint256"
        },
        {
          "indexed": false,
          "internalType": "string",
          "name": "tipe",
          "type": "string"
        },
        {
          "indexed": false,
          "internalType": "string",
          "name": "name",
          "type": "string"
        }
      ],
      "name": "NewAnimal",
      "type": "event"
    },
    {
      "anonymous": false,
      "inputs": [
        {
          "indexed": true,
          "internalType": "address",
          "name": "account",
          "type": "address"
        }
      ],
      "name": "RemovedFromBreederList",
      "type": "event"
    },
    {
      "anonymous": false,
      "inputs": [
        {
          "indexed": false,
          "internalType": "address",
          "name": "from",
          "type": "address"
        },
        {
          "indexed": false,
          "internalType": "address",
          "name": "to",
          "type": "address"
        },
        {
          "indexed": false,
          "internalType": "uint256",
          "name": "tokenId",
          "type": "uint256"
        }
      ],
      "name": "Transfer",
      "type": "event"
    },
    {
      "constant": true,
      "inputs": [
        {
          "internalType": "uint256",
          "name": "",
          "type": "uint256"
        }
      ],
      "name": "amountToFight",
      "outputs": [
        {
          "internalType": "uint256",
          "name": "",
          "type": "uint256"
        }
      ],
      "payable": false,
      "stateMutability": "view",
      "type": "function"
    },
    {
      "constant": true,
      "inputs": [
        {
          "internalType": "uint256",
          "name": "",
          "type": "uint256"
        }
      ],
      "name": "animalApprovals",
      "outputs": [
        {
          "internalType": "address",
          "name": "",
          "type": "address"
        }
      ],
      "payable": false,
      "stateMutability": "view",
      "type": "function"
    },
    {
      "constant": true,
      "inputs": [
        {
          "internalType": "uint256",
          "name": "",
          "type": "uint256"
        }
      ],
      "name": "animalReandyToFight",
      "outputs": [
        {
          "internalType": "bool",
          "name": "",
          "type": "bool"
        }
      ],
      "payable": false,
      "stateMutability": "view",
      "type": "function"
    },
    {
      "constant": true,
      "inputs": [
        {
          "internalType": "uint256",
          "name": "",
          "type": "uint256"
        }
      ],
      "name": "animalToOwner",
      "outputs": [
        {
          "internalType": "address payable",
          "name": "",
          "type": "address"
        }
      ],
      "payable": false,
      "stateMutability": "view",
      "type": "function"
    },
    {
      "constant": true,
      "inputs": [
        {
          "internalType": "uint256",
          "name": "",
          "type": "uint256"
        }
      ],
      "name": "animals",
      "outputs": [
        {
          "internalType": "uint256",
          "name": "animalId",
          "type": "uint256"
        },
        {
          "internalType": "string",
          "name": "tipe",
          "type": "string"
        },
        {
          "internalType": "string",
          "name": "sexe",
          "type": "string"
        },
        {
          "internalType": "string",
          "name": "name",
          "type": "string"
        },
        {
          "internalType": "string",
          "name": "color",
          "type": "string"
        },
        {
          "internalType": "uint8",
          "name": "nb_paws",
          "type": "uint8"
        }
      ],
      "payable": false,
      "stateMutability": "view",
      "type": "function"
    },
    {
      "constant": false,
      "inputs": [
        {
          "internalType": "address",
          "name": "_to",
          "type": "address"
        },
        {
          "internalType": "uint256",
          "name": "_tokenId",
          "type": "uint256"
        }
      ],
      "name": "approve",
      "outputs": [],
      "payable": false,
      "stateMutability": "nonpayable",
      "type": "function"
    },
    {
      "constant": true,
      "inputs": [
        {
          "internalType": "address",
          "name": "_owner",
          "type": "address"
        }
      ],
      "name": "balanceOf",
      "outputs": [
        {
          "internalType": "uint256",
          "name": "balance",
          "type": "uint256"
        }
      ],
      "payable": false,
      "stateMutability": "view",
      "type": "function"
    },
    {
      "constant": false,
      "inputs": [
        {
          "internalType": "uint256",
          "name": "_animalId",
          "type": "uint256"
        }
      ],
      "name": "deadAnimal",
      "outputs": [],
      "payable": false,
      "stateMutability": "nonpayable",
      "type": "function"
    },
    {
      "constant": true,
      "inputs": [
        {
          "internalType": "address",
          "name": "_breeder",
          "type": "address"
        }
      ],
      "name": "isABreeder",
      "outputs": [
        {
          "internalType": "bool",
          "name": "",
          "type": "bool"
        }
      ],
      "payable": false,
      "stateMutability": "view",
      "type": "function"
    },
    {
      "constant": true,
      "inputs": [
        {
          "internalType": "uint256",
          "name": "_tokenId",
          "type": "uint256"
        }
      ],
      "name": "ownerOf",
      "outputs": [
        {
          "internalType": "address",
          "name": "owner",
          "type": "address"
        }
      ],
      "payable": false,
      "stateMutability": "view",
      "type": "function"
    },
    {
      "constant": false,
      "inputs": [
        {
          "internalType": "address",
          "name": "_breeder",
          "type": "address"
        }
      ],
      "name": "registerBreeder",
      "outputs": [],
      "payable": false,
      "stateMutability": "nonpayable",
      "type": "function"
    },
    {
      "constant": false,
      "inputs": [
        {
          "internalType": "address",
          "name": "_breeder",
          "type": "address"
        }
      ],
      "name": "removeBreeder",
      "outputs": [],
      "payable": false,
      "stateMutability": "nonpayable",
      "type": "function"
    },
    {
      "constant": false,
      "inputs": [
        {
          "internalType": "uint256",
          "name": "_tokenId",
          "type": "uint256"
        }
      ],
      "name": "tokeOwnership",
      "outputs": [],
      "payable": false,
      "stateMutability": "nonpayable",
      "type": "function"
    },
    {
      "constant": true,
      "inputs": [],
      "name": "totalSupply",
      "outputs": [
        {
          "internalType": "uint256",
          "name": "total",
          "type": "uint256"
        }
      ],
      "payable": false,
      "stateMutability": "view",
      "type": "function"
    },
    {
      "constant": false,
      "inputs": [
        {
          "internalType": "address payable",
          "name": "_to",
          "type": "address"
        },
        {
          "internalType": "uint256",
          "name": "_tokenId",
          "type": "uint256"
        }
      ],
      "name": "transfer",
      "outputs": [],
      "payable": false,
      "stateMutability": "nonpayable",
      "type": "function"
    },
    {
      "constant": false,
      "inputs": [
        {
          "internalType": "address",
          "name": "_from",
          "type": "address"
        },
        {
          "internalType": "address payable",
          "name": "_to",
          "type": "address"
        },
        {
          "internalType": "uint256",
          "name": "_tokenId",
          "type": "uint256"
        }
      ],
      "name": "transferFrom",
      "outputs": [],
      "payable": false,
      "stateMutability": "nonpayable",
      "type": "function"
    },
    {
      "constant": false,
      "inputs": [
        {
          "internalType": "uint256",
          "name": "_animalId",
          "type": "uint256"
        },
        {
          "internalType": "uint256",
          "name": "_targetId",
          "type": "uint256"
        }
      ],
      "name": "ToFight",
      "outputs": [],
      "payable": true,
      "stateMutability": "payable",
      "type": "function"
    },
    {
      "constant": false,
      "inputs": [
        {
          "internalType": "uint256",
          "name": "_animalId",
          "type": "uint256"
        },
        {
          "internalType": "uint256",
          "name": "_amount",
          "type": "uint256"
        }
      ],
      "name": "ReadyToFight",
      "outputs": [],
      "payable": true,
      "stateMutability": "payable",
      "type": "function"
    },
    {
      "constant": true,
      "inputs": [
        {
          "internalType": "uint256",
          "name": "_animalId",
          "type": "uint256"
        }
      ],
      "name": "isAnimalReadyToFight",
      "outputs": [
        {
          "internalType": "bool",
          "name": "",
          "type": "bool"
        }
      ],
      "payable": false,
      "stateMutability": "view",
      "type": "function"
    },
    {
      "constant": true,
      "inputs": [
        {
          "internalType": "uint256",
          "name": "_animalId",
          "type": "uint256"
        }
      ],
      "name": "theAmountToFight",
      "outputs": [
        {
          "internalType": "uint256",
          "name": "",
          "type": "uint256"
        }
      ],
      "payable": false,
      "stateMutability": "view",
      "type": "function"
    },
    {
      "constant": false,
      "inputs": [
        {
          "internalType": "address payable",
          "name": "_address",
          "type": "address"
        },
        {
          "internalType": "uint256",
          "name": "_amount",
          "type": "uint256"
        }
      ],
      "name": "TransferMoneyWin",
      "outputs": [],
      "payable": true,
      "stateMutability": "payable",
      "type": "function"
    }
  ],
  "bytecode": "0x608060405234801561001057600080fd5b506118d3806100206000396000f3fe60806040526004361061012a5760003560e01c80637f70719c116100ab578063c4f738521161006f578063c4f73852146107cd578063cf610c3f14610836578063d81c513a14610884578063d9852978146108ff578063d9cb18561461097a578063ec9b6db9146109b55761012a565b80637f70719c1461048c578063998dd3ca146104df578063a9059cbb146106eb578063b0a4a01214610746578063c1248aa41461077e5761012a565b806346456c66116100f257806346456c66146102d2578063476fd474146103235780635c782446146103745780636352211e146103ac57806370a08231146104275761012a565b806306ebc4a91461012f578063095ea7b31461017e57806318160ddd146101d95780631bf354bd1461020457806323b872dd14610257575b600080fd5b34801561013b57600080fd5b506101686004803603602081101561015257600080fd5b81019080803590602001909291905050506109f0565b6040518082815260200191505060405180910390f35b34801561018a57600080fd5b506101d7600480360360408110156101a157600080fd5b81019080803573ffffffffffffffffffffffffffffffffffffffff16906020019092919080359060200190929190505050610a0d565b005b3480156101e557600080fd5b506101ee610b6d565b6040518082815260200191505060405180910390f35b34801561021057600080fd5b5061023d6004803603602081101561022757600080fd5b8101908080359060200190929190505050610b7a565b604051808215151515815260200191505060405180910390f35b34801561026357600080fd5b506102d06004803603606081101561027a57600080fd5b81019080803573ffffffffffffffffffffffffffffffffffffffff169060200190929190803573ffffffffffffffffffffffffffffffffffffffff16906020019092919080359060200190929190505050610b9a565b005b3480156102de57600080fd5b50610321600480360360208110156102f557600080fd5b81019080803573ffffffffffffffffffffffffffffffffffffffff169060200190929190505050610d2f565b005b34801561032f57600080fd5b506103726004803603602081101561034657600080fd5b81019080803573ffffffffffffffffffffffffffffffffffffffff169060200190929190505050610e28565b005b6103aa6004803603604081101561038a57600080fd5b810190808035906020019092919080359060200190929190505050610f21565b005b3480156103b857600080fd5b506103e5600480360360208110156103cf57600080fd5b8101908080359060200190929190505050611091565b604051808273ffffffffffffffffffffffffffffffffffffffff1673ffffffffffffffffffffffffffffffffffffffff16815260200191505060405180910390f35b34801561043357600080fd5b506104766004803603602081101561044a57600080fd5b81019080803573ffffffffffffffffffffffffffffffffffffffff1690602001909291905050506110ce565b6040518082815260200191505060405180910390f35b34801561049857600080fd5b506104c5600480360360208110156104af57600080fd5b8101908080359060200190929190505050611117565b604051808215151515815260200191505060405180910390f35b3480156104eb57600080fd5b506105186004803603602081101561050257600080fd5b8101908080359060200190929190505050611153565b60405180878152602001806020018060200180602001806020018660ff1660ff16815260200185810385528a818151815260200191508051906020019080838360005b8381101561057657808201518184015260208101905061055b565b50505050905090810190601f1680156105a35780820380516001836020036101000a031916815260200191505b50858103845289818151815260200191508051906020019080838360005b838110156105dc5780820151818401526020810190506105c1565b50505050905090810190601f1680156106095780820380516001836020036101000a031916815260200191505b50858103835288818151815260200191508051906020019080838360005b83811015610642578082015181840152602081019050610627565b50505050905090810190601f16801561066f5780820380516001836020036101000a031916815260200191505b50858103825287818151815260200191508051906020019080838360005b838110156106a857808201518184015260208101905061068d565b50505050905090810190601f1680156106d55780820380516001836020036101000a031916815260200191505b509a505050505050505050505060405180910390f35b3480156106f757600080fd5b506107446004803603604081101561070e57600080fd5b81019080803573ffffffffffffffffffffffffffffffffffffffff16906020019092919080359060200190929190505050611409565b005b61077c6004803603604081101561075c57600080fd5b810190808035906020019092919080359060200190929190505050611483565b005b34801561078a57600080fd5b506107b7600480360360208110156107a157600080fd5b8101908080359060200190929190505050611554565b6040518082815260200191505060405180910390f35b3480156107d957600080fd5b5061081c600480360360208110156107f057600080fd5b81019080803573ffffffffffffffffffffffffffffffffffffffff16906020019092919050505061156c565b604051808215151515815260200191505060405180910390f35b6108826004803603604081101561084c57600080fd5b81019080803573ffffffffffffffffffffffffffffffffffffffff169060200190929190803590602001909291905050506115c1565b005b34801561089057600080fd5b506108bd600480360360208110156108a757600080fd5b8101908080359060200190929190505050611621565b604051808273ffffffffffffffffffffffffffffffffffffffff1673ffffffffffffffffffffffffffffffffffffffff16815260200191505060405180910390f35b34801561090b57600080fd5b506109386004803603602081101561092257600080fd5b8101908080359060200190929190505050611654565b604051808273ffffffffffffffffffffffffffffffffffffffff1673ffffffffffffffffffffffffffffffffffffffff16815260200191505060405180910390f35b34801561098657600080fd5b506109b36004803603602081101561099d57600080fd5b8101908080359060200190929190505050611687565b005b3480156109c157600080fd5b506109ee600480360360208110156109d857600080fd5b8101908080359060200190929190505050611739565b005b600060066000838152602001908152602001600020549050919050565b3373ffffffffffffffffffffffffffffffffffffffff166001600083815260200190815260200160002060009054906101000a900473ffffffffffffffffffffffffffffffffffffffff1673ffffffffffffffffffffffffffffffffffffffff1614610a7857600080fd5b816004600083815260200190815260200160002060006101000a81548173ffffffffffffffffffffffffffffffffffffffff021916908373ffffffffffffffffffffffffffffffffffffffff1602179055507f8c5be1e5ebec7d5bd14f71427d1e84f3dd0314c0f7b2291e5b200ac8c7c3b925338383604051808473ffffffffffffffffffffffffffffffffffffffff1673ffffffffffffffffffffffffffffffffffffffff1681526020018373ffffffffffffffffffffffffffffffffffffffff1673ffffffffffffffffffffffffffffffffffffffff168152602001828152602001935050505060405180910390a15050565b6000600380549050905090565b60056020528060005260406000206000915054906101000a900460ff1681565b816001600083815260200190815260200160002060006101000a81548173ffffffffffffffffffffffffffffffffffffffff021916908373ffffffffffffffffffffffffffffffffffffffff160217905550600260008373ffffffffffffffffffffffffffffffffffffffff1673ffffffffffffffffffffffffffffffffffffffff16815260200190815260200160002060008154809291906001019190505550600260008473ffffffffffffffffffffffffffffffffffffffff1673ffffffffffffffffffffffffffffffffffffffff16815260200190815260200160002060008154809291906001900391905055507fddf252ad1be2c89b69c2b068fc378daa952ba7f163c4a11628f55a4df523b3ef838383604051808473ffffffffffffffffffffffffffffffffffffffff1673ffffffffffffffffffffffffffffffffffffffff1681526020018373ffffffffffffffffffffffffffffffffffffffff1673ffffffffffffffffffffffffffffffffffffffff168152602001828152602001935050505060405180910390a1505050565b600115156000808373ffffffffffffffffffffffffffffffffffffffff1673ffffffffffffffffffffffffffffffffffffffff16815260200190815260200160002060009054906101000a900460ff16151514610d8b57600080fd5b60008060008373ffffffffffffffffffffffffffffffffffffffff1673ffffffffffffffffffffffffffffffffffffffff16815260200190815260200160002060006101000a81548160ff0219169083151502179055508073ffffffffffffffffffffffffffffffffffffffff167f938ef794f4afe55be567004bfe9ac18c6eb39aa9a923ac272d379b8e0b18863a60405160405180910390a250565b600015156000808373ffffffffffffffffffffffffffffffffffffffff1673ffffffffffffffffffffffffffffffffffffffff16815260200190815260200160002060009054906101000a900460ff16151514610e8457600080fd5b60016000808373ffffffffffffffffffffffffffffffffffffffff1673ffffffffffffffffffffffffffffffffffffffff16815260200190815260200160002060006101000a81548160ff0219169083151502179055508073ffffffffffffffffffffffffffffffffffffffff167fc1448f5e2e05cea974ecfedd2f801913739f5ddb6aaf7e34af16e54ba5df2b4660405160405180910390a250565b610f2a3361156c565b610f3357600080fd5b3373ffffffffffffffffffffffffffffffffffffffff166001600084815260200190815260200160002060009054906101000a900473ffffffffffffffffffffffffffffffffffffffff1673ffffffffffffffffffffffffffffffffffffffff1614610f9e57600080fd5b60011515610fab82611117565b151514610fb757600080fd5b6000610fc2826109f0565b9050803414610fd057600080fd5b610fd983611739565b61101e6001600084815260200190815260200160002060009054906101000a900473ffffffffffffffffffffffffffffffffffffffff16611019846109f0565b6115c1565b7f7c21a8b5ee77ae5805ee5bbd0428d87dae7976c0c415dc5c91a7041937a7889d836040518082815260200191505060405180910390a17fc302de7c95ad2d1692b381056b0150a1603e615afd9abf8b1237fe1a96bb13b7826040518082815260200191505060405180910390a1505050565b60006001600083815260200190815260200160002060009054906101000a900473ffffffffffffffffffffffffffffffffffffffff169050919050565b6000600260008373ffffffffffffffffffffffffffffffffffffffff1673ffffffffffffffffffffffffffffffffffffffff168152602001908152602001600020549050919050565b60006111223361156c565b61112b57600080fd5b6005600083815260200190815260200160002060009054906101000a900460ff169050919050565b6003818154811061116057fe5b9060005260206000209060060201600091509050806000015490806001018054600181600116156101000203166002900480601f0160208091040260200160405190810160405280929190818152602001828054600181600116156101000203166002900480156112125780601f106111e757610100808354040283529160200191611212565b820191906000526020600020905b8154815290600101906020018083116111f557829003601f168201915b505050505090806002018054600181600116156101000203166002900480601f0160208091040260200160405190810160405280929190818152602001828054600181600116156101000203166002900480156112b05780601f10611285576101008083540402835291602001916112b0565b820191906000526020600020905b81548152906001019060200180831161129357829003601f168201915b505050505090806003018054600181600116156101000203166002900480601f01602080910402602001604051908101604052809291908181526020018280546001816001161561010002031660029004801561134e5780601f106113235761010080835404028352916020019161134e565b820191906000526020600020905b81548152906001019060200180831161133157829003601f168201915b505050505090806004018054600181600116156101000203166002900480601f0160208091040260200160405190810160405280929190818152602001828054600181600116156101000203166002900480156113ec5780601f106113c1576101008083540402835291602001916113ec565b820191906000526020600020905b8154815290600101906020018083116113cf57829003601f168201915b5050505050908060050160009054906101000a900460ff16905086565b3373ffffffffffffffffffffffffffffffffffffffff166001600083815260200190815260200160002060009054906101000a900473ffffffffffffffffffffffffffffffffffffffff1673ffffffffffffffffffffffffffffffffffffffff161461147457600080fd5b61147f338383610b9a565b5050565b61148c3361156c565b61149557600080fd5b3373ffffffffffffffffffffffffffffffffffffffff166001600084815260200190815260200160002060009054906101000a900473ffffffffffffffffffffffffffffffffffffffff1673ffffffffffffffffffffffffffffffffffffffff161461150057600080fd5b80341461150c57600080fd5b60016005600084815260200190815260200160002060006101000a81548160ff0219169083151502179055508060066000848152602001908152602001600020819055505050565b60066020528060005260406000206000915090505481565b60008060008373ffffffffffffffffffffffffffffffffffffffff1673ffffffffffffffffffffffffffffffffffffffff16815260200190815260200160002060009054906101000a900460ff169050919050565b6115ca3361156c565b6115d357600080fd5b8173ffffffffffffffffffffffffffffffffffffffff166108fc826002029081150290604051600060405180830381858888f1935050505015801561161c573d6000803e3d6000fd5b505050565b60016020528060005260406000206000915054906101000a900473ffffffffffffffffffffffffffffffffffffffff1681565b60046020528060005260406000206000915054906101000a900473ffffffffffffffffffffffffffffffffffffffff1681565b6004600082815260200190815260200160002060009054906101000a900473ffffffffffffffffffffffffffffffffffffffff1673ffffffffffffffffffffffffffffffffffffffff163373ffffffffffffffffffffffffffffffffffffffff16146116f257600080fd5b60006001600083815260200190815260200160002060009054906101000a900473ffffffffffffffffffffffffffffffffffffffff169050611735813384610b9a565b5050565b6117423361156c565b61174b57600080fd5b6001600082815260200190815260200160002060009054906101000a900473ffffffffffffffffffffffffffffffffffffffff1673ffffffffffffffffffffffffffffffffffffffff163373ffffffffffffffffffffffffffffffffffffffff16146117b657600080fd5b600260003373ffffffffffffffffffffffffffffffffffffffff1673ffffffffffffffffffffffffffffffffffffffff168152602001908152602001600020600081548092919060019003919050555060006001600083815260200190815260200160002060006101000a81548173ffffffffffffffffffffffffffffffffffffffff021916908373ffffffffffffffffffffffffffffffffffffffff160217905550611864600082611409565b7f7c21a8b5ee77ae5805ee5bbd0428d87dae7976c0c415dc5c91a7041937a7889d816040518082815260200191505060405180910390a15056fea265627a7a72315820d24398bb4cdde05b65d531754bfe60f26bf04ba4974c7148a09b314c43ee3b4364736f6c63430005100032",
  "source": "pragma solidity >=0.4.25 <0.7.0;\r\n\r\nimport \"./AnimalLand.sol\";\r\nimport \"./AnimalOwnership.sol\";\r\n\r\ncontract AnimalBAttle is AnimalLand, AnimalOwnership {\r\n\r\nevent AnimalWin(uint256 animalId );\r\n\r\nmapping (uint256=>bool) public animalReandyToFight;\r\nmapping(uint256=>uint256) public amountToFight;\r\n\r\n\r\n/*\r\n**Battle against two Animals.\r\n**We are for the peace so the breeder who call this function to fight lose his money and animal :)\r\n*/\r\n\r\nfunction ToFight(uint256 _animalId, uint256 _targetId) public payable OnlyBreederListed(){\r\n    require(animalToOwner[_animalId]==msg.sender);\r\n    require(isAnimalReadyToFight(_targetId)==true);\r\n    uint256 amount= theAmountToFight(_targetId);\r\n    require(msg.value== amount);\r\n    deadAnimal(_animalId);\r\n    TransferMoneyWin(animalToOwner[_targetId], theAmountToFight(_targetId));\r\n    emit BurnAnimal(_animalId);\r\n    emit AnimalWin(_targetId);\r\n}\r\n\r\n/*\r\n**Register your animal in the Arena.\r\n*/\r\n\r\nfunction ReadyToFight(uint256 _animalId,uint256 _amount) public payable OnlyBreederListed(){\r\n    require(animalToOwner[_animalId]==msg.sender);\r\n    require(msg.value==_amount);\r\n    animalReandyToFight[_animalId]=true;\r\n    amountToFight[_animalId]=_amount;\r\n    \r\n}\r\n\r\n/*\r\n**Return true if the animal is on the list of fighter.\r\n*/\r\n\r\nfunction isAnimalReadyToFight(uint256 _animalId) OnlyBreederListed() public view returns(bool){\r\n    return animalReandyToFight[_animalId];\r\n}\r\n\r\n/*\r\n**Show you the amount that you have to pay to fight against this animal.\r\n*/\r\n\r\nfunction theAmountToFight(uint256 _animalId) public view returns(uint256){\r\n    return amountToFight[_animalId];\r\n}\r\n\r\n/*\r\n**Function to pay Winner \r\n*/\r\n\r\nfunction TransferMoneyWin(address payable _address, uint256 _amount) public payable OnlyBreederListed(){\r\n    _address.transfer(2*_amount); \r\n}\r\n}",
  "sourcePath": "C:\\Users\\Miloj\\TD6-Blockchain\\contracts\\AnimalBattle.sol",
  "compiler": {
    "name": "solc",
    "version": "0.5.16+commit.9c3226ce.Emscripten.clang"
  },
  "schemaVersion": "3.0.23",
  "updatedAt": "2020-03-10T09:31:42.277Z",
  "devdoc": {
    "methods": {}
  },
  "userdoc": {
    "methods": {
      "isABreeder(address)": {
        "notice": "Check if an address is in the breeder list."
      },
      "registerBreeder(address)": {
        "notice": "Add an address in the breeder list. "
      },
      "removeBreeder(address)": {
        "notice": "Remove an address from the breeder list. "
      }
    }
  }
}