{
  "contractName": "AnimalLand",
  "abi": [
    {
      "anonymous": false,
      "inputs": [
        {
          "indexed": true,
          "internalType": "address",
          "name": "account",
          "type": "address"
        }
      ],
      "name": "AddedToBreederList",
      "type": "event"
    },
    {
      "anonymous": false,
      "inputs": [
        {
          "indexed": false,
          "internalType": "uint256",
          "name": "animalId",
          "type": "uint256"
        }
      ],
      "name": "BurnAnimal",
      "type": "event"
    },
    {
      "anonymous": false,
      "inputs": [
        {
          "indexed": false,
          "internalType": "uint256",
          "name": "animalId",
          "type": "uint256"
        },
        {
          "indexed": false,
          "internalType": "string",
          "name": "tipe",
          "type": "string"
        },
        {
          "indexed": false,
          "internalType": "string",
          "name": "name",
          "type": "string"
        }
      ],
      "name": "NewAnimal",
      "type": "event"
    },
    {
      "anonymous": false,
      "inputs": [
        {
          "indexed": true,
          "internalType": "address",
          "name": "account",
          "type": "address"
        }
      ],
      "name": "RemovedFromBreederList",
      "type": "event"
    },
    {
      "constant": true,
      "inputs": [
        {
          "internalType": "uint256",
          "name": "",
          "type": "uint256"
        }
      ],
      "name": "animalToOwner",
      "outputs": [
        {
          "internalType": "address payable",
          "name": "",
          "type": "address"
        }
      ],
      "payable": false,
      "stateMutability": "view",
      "type": "function"
    },
    {
      "constant": true,
      "inputs": [
        {
          "internalType": "uint256",
          "name": "",
          "type": "uint256"
        }
      ],
      "name": "animals",
      "outputs": [
        {
          "internalType": "uint256",
          "name": "animalId",
          "type": "uint256"
        },
        {
          "internalType": "string",
          "name": "tipe",
          "type": "string"
        },
        {
          "internalType": "string",
          "name": "sexe",
          "type": "string"
        },
        {
          "internalType": "string",
          "name": "name",
          "type": "string"
        },
        {
          "internalType": "string",
          "name": "color",
          "type": "string"
        },
        {
          "internalType": "uint8",
          "name": "nb_paws",
          "type": "uint8"
        }
      ],
      "payable": false,
      "stateMutability": "view",
      "type": "function"
    },
    {
      "constant": true,
      "inputs": [
        {
          "internalType": "address",
          "name": "_breeder",
          "type": "address"
        }
      ],
      "name": "isABreeder",
      "outputs": [
        {
          "internalType": "bool",
          "name": "",
          "type": "bool"
        }
      ],
      "payable": false,
      "stateMutability": "view",
      "type": "function"
    },
    {
      "constant": false,
      "inputs": [
        {
          "internalType": "address",
          "name": "_breeder",
          "type": "address"
        }
      ],
      "name": "registerBreeder",
      "outputs": [],
      "payable": false,
      "stateMutability": "nonpayable",
      "type": "function"
    },
    {
      "constant": false,
      "inputs": [
        {
          "internalType": "address",
          "name": "_breeder",
          "type": "address"
        }
      ],
      "name": "removeBreeder",
      "outputs": [],
      "payable": false,
      "stateMutability": "nonpayable",
      "type": "function"
    }
  ],
  "bytecode": "0x608060405234801561001057600080fd5b50610912806100206000396000f3fe608060405234801561001057600080fd5b50600436106100575760003560e01c806346456c661461005c578063476fd474146100a0578063998dd3ca146100e4578063c4f73852146102e3578063d81c513a1461033f575b600080fd5b61009e6004803603602081101561007257600080fd5b81019080803573ffffffffffffffffffffffffffffffffffffffff1690602001909291905050506103ad565b005b6100e2600480360360208110156100b657600080fd5b81019080803573ffffffffffffffffffffffffffffffffffffffff1690602001909291905050506104a6565b005b610110600480360360208110156100fa57600080fd5b810190808035906020019092919050505061059f565b60405180878152602001806020018060200180602001806020018660ff1660ff16815260200185810385528a818151815260200191508051906020019080838360005b8381101561016e578082015181840152602081019050610153565b50505050905090810190601f16801561019b5780820380516001836020036101000a031916815260200191505b50858103845289818151815260200191508051906020019080838360005b838110156101d45780820151818401526020810190506101b9565b50505050905090810190601f1680156102015780820380516001836020036101000a031916815260200191505b50858103835288818151815260200191508051906020019080838360005b8381101561023a57808201518184015260208101905061021f565b50505050905090810190601f1680156102675780820380516001836020036101000a031916815260200191505b50858103825287818151815260200191508051906020019080838360005b838110156102a0578082015181840152602081019050610285565b50505050905090810190601f1680156102cd5780820380516001836020036101000a031916815260200191505b509a505050505050505050505060405180910390f35b610325600480360360208110156102f957600080fd5b81019080803573ffffffffffffffffffffffffffffffffffffffff169060200190929190505050610855565b604051808215151515815260200191505060405180910390f35b61036b6004803603602081101561035557600080fd5b81019080803590602001909291905050506108aa565b604051808273ffffffffffffffffffffffffffffffffffffffff1673ffffffffffffffffffffffffffffffffffffffff16815260200191505060405180910390f35b600115156000808373ffffffffffffffffffffffffffffffffffffffff1673ffffffffffffffffffffffffffffffffffffffff16815260200190815260200160002060009054906101000a900460ff1615151461040957600080fd5b60008060008373ffffffffffffffffffffffffffffffffffffffff1673ffffffffffffffffffffffffffffffffffffffff16815260200190815260200160002060006101000a81548160ff0219169083151502179055508073ffffffffffffffffffffffffffffffffffffffff167f938ef794f4afe55be567004bfe9ac18c6eb39aa9a923ac272d379b8e0b18863a60405160405180910390a250565b600015156000808373ffffffffffffffffffffffffffffffffffffffff1673ffffffffffffffffffffffffffffffffffffffff16815260200190815260200160002060009054906101000a900460ff1615151461050257600080fd5b60016000808373ffffffffffffffffffffffffffffffffffffffff1673ffffffffffffffffffffffffffffffffffffffff16815260200190815260200160002060006101000a81548160ff0219169083151502179055508073ffffffffffffffffffffffffffffffffffffffff167fc1448f5e2e05cea974ecfedd2f801913739f5ddb6aaf7e34af16e54ba5df2b4660405160405180910390a250565b600381815481106105ac57fe5b9060005260206000209060060201600091509050806000015490806001018054600181600116156101000203166002900480601f01602080910402602001604051908101604052809291908181526020018280546001816001161561010002031660029004801561065e5780601f106106335761010080835404028352916020019161065e565b820191906000526020600020905b81548152906001019060200180831161064157829003601f168201915b505050505090806002018054600181600116156101000203166002900480601f0160208091040260200160405190810160405280929190818152602001828054600181600116156101000203166002900480156106fc5780601f106106d1576101008083540402835291602001916106fc565b820191906000526020600020905b8154815290600101906020018083116106df57829003601f168201915b505050505090806003018054600181600116156101000203166002900480601f01602080910402602001604051908101604052809291908181526020018280546001816001161561010002031660029004801561079a5780601f1061076f5761010080835404028352916020019161079a565b820191906000526020600020905b81548152906001019060200180831161077d57829003601f168201915b505050505090806004018054600181600116156101000203166002900480601f0160208091040260200160405190810160405280929190818152602001828054600181600116156101000203166002900480156108385780601f1061080d57610100808354040283529160200191610838565b820191906000526020600020905b81548152906001019060200180831161081b57829003601f168201915b5050505050908060050160009054906101000a900460ff16905086565b60008060008373ffffffffffffffffffffffffffffffffffffffff1673ffffffffffffffffffffffffffffffffffffffff16815260200190815260200160002060009054906101000a900460ff169050919050565b60016020528060005260406000206000915054906101000a900473ffffffffffffffffffffffffffffffffffffffff168156fea265627a7a723158206207148d4a21091d2ee04f293746fb2d642afe4a62339958274419a0f338b99f64736f6c63430005100032",
  "source": "pragma solidity >=0.4.25 <0.7.0;\r\n\r\nimport \"./Breeder.sol\";\r\n\r\ncontract AnimalLand is Breeder{\r\n\r\n    event NewAnimal(uint256 animalId,string tipe,string name);\r\n    event BurnAnimal(uint256 animalId);\r\n\r\n    mapping (uint => address payable) public animalToOwner;\r\n    mapping (address => uint) ownerAnimalCount;\r\n\r\n    Animal[] public animals;     //Listed all Animals created.\r\n\r\n    struct Animal{\r\n        uint256 animalId;\r\n        string tipe;    //type(cat,dog,cow...)\r\n        string sexe;\r\n        string name;\r\n        string color;\r\n        uint8 nb_paws;\r\n\r\n    }\r\n\r\n    /*\r\n    **Declare your animal.\r\n    */\r\n\r\n    function declareAnimal(string memory _tipe, string memory _sexe, string memory _name,string memory _color,uint8 _nb_paws ) \r\n    internal OnlyBreederListed(){\r\n\r\n        uint256 animalId=animals.length;\r\n        animals.push(Animal(animalId,_tipe,_sexe,_name,_color,_nb_paws));\r\n        animalToOwner[animalId] = msg.sender;\r\n        ownerAnimalCount[msg.sender]++;\r\n        emit NewAnimal(animalId, _tipe ,_name);\r\n    }\r\n\r\n\r\n}",
  "sourcePath": "C:\\Users\\Miloj\\TD6-Blockchain\\contracts\\AnimalLand.sol",
  "compiler": {
    "name": "solc",
    "version": "0.5.16+commit.9c3226ce.Emscripten.clang"
  },
  "schemaVersion": "3.0.23",
  "updatedAt": "2020-03-10T09:31:42.280Z",
  "devdoc": {
    "methods": {}
  },
  "userdoc": {
    "methods": {
      "isABreeder(address)": {
        "notice": "Check if an address is in the breeder list."
      },
      "registerBreeder(address)": {
        "notice": "Add an address in the breeder list. "
      },
      "removeBreeder(address)": {
        "notice": "Remove an address from the breeder list. "
      }
    }
  }
}