{
  "contractName": "Offspring",
  "abi": [
    {
      "anonymous": false,
      "inputs": [
        {
          "indexed": true,
          "internalType": "address",
          "name": "account",
          "type": "address"
        }
      ],
      "name": "AddedToBreederList",
      "type": "event"
    },
    {
      "anonymous": false,
      "inputs": [
        {
          "indexed": false,
          "internalType": "uint256",
          "name": "animalId",
          "type": "uint256"
        }
      ],
      "name": "BurnAnimal",
      "type": "event"
    },
    {
      "anonymous": false,
      "inputs": [
        {
          "indexed": false,
          "internalType": "uint256",
          "name": "animalId",
          "type": "uint256"
        },
        {
          "indexed": false,
          "internalType": "string",
          "name": "tipe",
          "type": "string"
        },
        {
          "indexed": false,
          "internalType": "string",
          "name": "name",
          "type": "string"
        }
      ],
      "name": "NewAnimal",
      "type": "event"
    },
    {
      "anonymous": false,
      "inputs": [
        {
          "indexed": true,
          "internalType": "address",
          "name": "account",
          "type": "address"
        }
      ],
      "name": "RemovedFromBreederList",
      "type": "event"
    },
    {
      "constant": true,
      "inputs": [
        {
          "internalType": "uint256",
          "name": "",
          "type": "uint256"
        }
      ],
      "name": "animalToOwner",
      "outputs": [
        {
          "internalType": "address payable",
          "name": "",
          "type": "address"
        }
      ],
      "payable": false,
      "stateMutability": "view",
      "type": "function"
    },
    {
      "constant": true,
      "inputs": [
        {
          "internalType": "uint256",
          "name": "",
          "type": "uint256"
        }
      ],
      "name": "animals",
      "outputs": [
        {
          "internalType": "uint256",
          "name": "animalId",
          "type": "uint256"
        },
        {
          "internalType": "string",
          "name": "tipe",
          "type": "string"
        },
        {
          "internalType": "string",
          "name": "sexe",
          "type": "string"
        },
        {
          "internalType": "string",
          "name": "name",
          "type": "string"
        },
        {
          "internalType": "string",
          "name": "color",
          "type": "string"
        },
        {
          "internalType": "uint8",
          "name": "nb_paws",
          "type": "uint8"
        }
      ],
      "payable": false,
      "stateMutability": "view",
      "type": "function"
    },
    {
      "constant": true,
      "inputs": [
        {
          "internalType": "address",
          "name": "_breeder",
          "type": "address"
        }
      ],
      "name": "isABreeder",
      "outputs": [
        {
          "internalType": "bool",
          "name": "",
          "type": "bool"
        }
      ],
      "payable": false,
      "stateMutability": "view",
      "type": "function"
    },
    {
      "constant": false,
      "inputs": [
        {
          "internalType": "address",
          "name": "_breeder",
          "type": "address"
        }
      ],
      "name": "registerBreeder",
      "outputs": [],
      "payable": false,
      "stateMutability": "nonpayable",
      "type": "function"
    },
    {
      "constant": false,
      "inputs": [
        {
          "internalType": "address",
          "name": "_breeder",
          "type": "address"
        }
      ],
      "name": "removeBreeder",
      "outputs": [],
      "payable": false,
      "stateMutability": "nonpayable",
      "type": "function"
    },
    {
      "constant": false,
      "inputs": [
        {
          "internalType": "uint256",
          "name": "_animalId",
          "type": "uint256"
        },
        {
          "internalType": "uint256",
          "name": "_animalId2",
          "type": "uint256"
        }
      ],
      "name": "BreedAnimal",
      "outputs": [],
      "payable": false,
      "stateMutability": "nonpayable",
      "type": "function"
    },
    {
      "constant": false,
      "inputs": [
        {
          "internalType": "uint256",
          "name": "_animalId",
          "type": "uint256"
        }
      ],
      "name": "readyToOffspring",
      "outputs": [],
      "payable": false,
      "stateMutability": "nonpayable",
      "type": "function"
    },
    {
      "constant": true,
      "inputs": [
        {
          "internalType": "uint256",
          "name": "_animalId",
          "type": "uint256"
        }
      ],
      "name": "isAbleToOffspring",
      "outputs": [
        {
          "internalType": "bool",
          "name": "",
          "type": "bool"
        }
      ],
      "payable": false,
      "stateMutability": "view",
      "type": "function"
    }
  ],
  "bytecode": "0x608060405234801561001057600080fd5b50611576806100206000396000f3fe608060405234801561001057600080fd5b50600436106100885760003560e01c8063c4f738521161005b578063c4f738521461034c578063c910e4bc146103a8578063d006b3b5146103d6578063d81c513a1461041c57610088565b806346456c661461008d578063476fd474146100d15780638a6fde0c14610115578063998dd3ca1461014d575b600080fd5b6100cf600480360360208110156100a357600080fd5b81019080803573ffffffffffffffffffffffffffffffffffffffff16906020019092919050505061048a565b005b610113600480360360208110156100e757600080fd5b81019080803573ffffffffffffffffffffffffffffffffffffffff169060200190929190505050610583565b005b61014b6004803603604081101561012b57600080fd5b81019080803590602001909291908035906020019092919050505061067c565b005b6101796004803603602081101561016357600080fd5b8101908080359060200190929190505050610dc5565b60405180878152602001806020018060200180602001806020018660ff1660ff16815260200185810385528a818151815260200191508051906020019080838360005b838110156101d75780820151818401526020810190506101bc565b50505050905090810190601f1680156102045780820380516001836020036101000a031916815260200191505b50858103845289818151815260200191508051906020019080838360005b8381101561023d578082015181840152602081019050610222565b50505050905090810190601f16801561026a5780820380516001836020036101000a031916815260200191505b50858103835288818151815260200191508051906020019080838360005b838110156102a3578082015181840152602081019050610288565b50505050905090810190601f1680156102d05780820380516001836020036101000a031916815260200191505b50858103825287818151815260200191508051906020019080838360005b838110156103095780820151818401526020810190506102ee565b50505050905090810190601f1680156103365780820380516001836020036101000a031916815260200191505b509a505050505050505050505060405180910390f35b61038e6004803603602081101561036257600080fd5b81019080803573ffffffffffffffffffffffffffffffffffffffff16906020019092919050505061107b565b604051808215151515815260200191505060405180910390f35b6103d4600480360360208110156103be57600080fd5b81019080803590602001909291905050506110d0565b005b610402600480360360208110156103ec57600080fd5b810190808035906020019092919050505061116a565b604051808215151515815260200191505060405180910390f35b6104486004803603602081101561043257600080fd5b8101908080359060200190929190505050611194565b604051808273ffffffffffffffffffffffffffffffffffffffff1673ffffffffffffffffffffffffffffffffffffffff16815260200191505060405180910390f35b600115156000808373ffffffffffffffffffffffffffffffffffffffff1673ffffffffffffffffffffffffffffffffffffffff16815260200190815260200160002060009054906101000a900460ff161515146104e657600080fd5b60008060008373ffffffffffffffffffffffffffffffffffffffff1673ffffffffffffffffffffffffffffffffffffffff16815260200190815260200160002060006101000a81548160ff0219169083151502179055508073ffffffffffffffffffffffffffffffffffffffff167f938ef794f4afe55be567004bfe9ac18c6eb39aa9a923ac272d379b8e0b18863a60405160405180910390a250565b600015156000808373ffffffffffffffffffffffffffffffffffffffff1673ffffffffffffffffffffffffffffffffffffffff16815260200190815260200160002060009054906101000a900460ff161515146105df57600080fd5b60016000808373ffffffffffffffffffffffffffffffffffffffff1673ffffffffffffffffffffffffffffffffffffffff16815260200190815260200160002060006101000a81548160ff0219169083151502179055508073ffffffffffffffffffffffffffffffffffffffff167fc1448f5e2e05cea974ecfedd2f801913739f5ddb6aaf7e34af16e54ba5df2b4660405160405180910390a250565b600115156106898361116a565b15151461069557600080fd5b600115156106a28261116a565b1515146106ae57600080fd5b73__StringUtils___________________________6346bdca9a600384815481106106d557fe5b9060005260206000209060060201600101600384815481106106f357fe5b90600052602060002090600602016001016040518363ffffffff1660e01b81526004018080602001806020018381038352858181546001816001161561010002031660029004815260200191508054600181600116156101000203166002900480156107a05780601f10610775576101008083540402835291602001916107a0565b820191906000526020600020905b81548152906001019060200180831161078357829003601f168201915b50508381038252848181546001816001161561010002031660029004815260200191508054600181600116156101000203166002900480156108235780601f106107f857610100808354040283529160200191610823565b820191906000526020600020905b81548152906001019060200180831161080657829003601f168201915b505094505050505060206040518083038186803b15801561084357600080fd5b505af4158015610857573d6000803e3d6000fd5b505050506040513d602081101561086d57600080fd5b810190808051906020019092919050505061088757600080fd5b73__StringUtils___________________________6346bdca9a600384815481106108ae57fe5b9060005260206000209060060201600201600384815481106108cc57fe5b90600052602060002090600602016002016040518363ffffffff1660e01b81526004018080602001806020018381038352858181546001816001161561010002031660029004815260200191508054600181600116156101000203166002900480156109795780601f1061094e57610100808354040283529160200191610979565b820191906000526020600020905b81548152906001019060200180831161095c57829003601f168201915b50508381038252848181546001816001161561010002031660029004815260200191508054600181600116156101000203166002900480156109fc5780601f106109d1576101008083540402835291602001916109fc565b820191906000526020600020905b8154815290600101906020018083116109df57829003601f168201915b505094505050505060206040518083038186803b158015610a1c57600080fd5b505af4158015610a30573d6000803e3d6000fd5b505050506040513d6020811015610a4657600080fd5b8101908080519060200190929190505050610a6057600080fd5b610dc160038381548110610a7057fe5b90600052602060002090600602016001018054600181600116156101000203166002900480601f016020809104026020016040519081016040528092919081815260200182805460018160011615610100020316600290048015610b155780601f10610aea57610100808354040283529160200191610b15565b820191906000526020600020905b815481529060010190602001808311610af857829003601f168201915b505050505060038381548110610b2757fe5b90600052602060002090600602016002018054600181600116156101000203166002900480601f016020809104026020016040519081016040528092919081815260200182805460018160011615610100020316600290048015610bcc5780601f10610ba157610100808354040283529160200191610bcc565b820191906000526020600020905b815481529060010190602001808311610baf57829003601f168201915b505050505060038581548110610bde57fe5b906000526020600020906006020160030160038581548110610bfc57fe5b90600052602060002090600602016003016040516020018083805460018160011615610100020316600290048015610c6b5780601f10610c49576101008083540402835291820191610c6b565b820191906000526020600020905b815481529060010190602001808311610c57575b505082805460018160011615610100020316600290048015610cc45780601f10610ca2576101008083540402835291820191610cc4565b820191906000526020600020905b815481529060010190602001808311610cb0575b50509250505060405160208183030381529060405260038581548110610ce657fe5b90600052602060002090600602016004018054600181600116156101000203166002900480601f016020809104026020016040519081016040528092919081815260200182805460018160011615610100020316600290048015610d8b5780601f10610d6057610100808354040283529160200191610d8b565b820191906000526020600020905b815481529060010190602001808311610d6e57829003601f168201915b505050505060038781548110610d9d57fe5b906000526020600020906006020160050160009054906101000a900460ff166111c7565b5050565b60038181548110610dd257fe5b9060005260206000209060060201600091509050806000015490806001018054600181600116156101000203166002900480601f016020809104026020016040519081016040528092919081815260200182805460018160011615610100020316600290048015610e845780601f10610e5957610100808354040283529160200191610e84565b820191906000526020600020905b815481529060010190602001808311610e6757829003601f168201915b505050505090806002018054600181600116156101000203166002900480601f016020809104026020016040519081016040528092919081815260200182805460018160011615610100020316600290048015610f225780601f10610ef757610100808354040283529160200191610f22565b820191906000526020600020905b815481529060010190602001808311610f0557829003601f168201915b505050505090806003018054600181600116156101000203166002900480601f016020809104026020016040519081016040528092919081815260200182805460018160011615610100020316600290048015610fc05780601f10610f9557610100808354040283529160200191610fc0565b820191906000526020600020905b815481529060010190602001808311610fa357829003601f168201915b505050505090806004018054600181600116156101000203166002900480601f01602080910402602001604051908101604052809291908181526020018280546001816001161561010002031660029004801561105e5780601f106110335761010080835404028352916020019161105e565b820191906000526020600020905b81548152906001019060200180831161104157829003601f168201915b5050505050908060050160009054906101000a900460ff16905086565b60008060008373ffffffffffffffffffffffffffffffffffffffff1673ffffffffffffffffffffffffffffffffffffffff16815260200190815260200160002060009054906101000a900460ff169050919050565b3373ffffffffffffffffffffffffffffffffffffffff166001600083815260200190815260200160002060009054906101000a900473ffffffffffffffffffffffffffffffffffffffff1673ffffffffffffffffffffffffffffffffffffffff161461113b57600080fd5b60016004600083815260200190815260200160002060006101000a81548160ff02191690831515021790555050565b60006004600083815260200190815260200160002060009054906101000a900460ff169050919050565b60016020528060005260406000206000915054906101000a900473ffffffffffffffffffffffffffffffffffffffff1681565b6111d03361107b565b6111d957600080fd5b6000600380549050905060036040518060c001604052808381526020018881526020018781526020018681526020018581526020018460ff168152509080600181540180825580915050906001820390600052602060002090600602016000909192909190915060008201518160000155602082015181600101908051906020019061126692919061149c565b50604082015181600201908051906020019061128392919061149c565b5060608201518160030190805190602001906112a092919061149c565b5060808201518160040190805190602001906112bd92919061149c565b5060a08201518160050160006101000a81548160ff021916908360ff160217905550505050336001600083815260200190815260200160002060006101000a81548173ffffffffffffffffffffffffffffffffffffffff021916908373ffffffffffffffffffffffffffffffffffffffff160217905550600260003373ffffffffffffffffffffffffffffffffffffffff1673ffffffffffffffffffffffffffffffffffffffff168152602001908152602001600020600081548092919060010191905055507fae462cfcea5c6fb0e90d249274da758d8837c3786b93966378612c7670e88cab818786604051808481526020018060200180602001838103835285818151815260200191508051906020019080838360005b838110156113f15780820151818401526020810190506113d6565b50505050905090810190601f16801561141e5780820380516001836020036101000a031916815260200191505b50838103825284818151815260200191508051906020019080838360005b8381101561145757808201518184015260208101905061143c565b50505050905090810190601f1680156114845780820380516001836020036101000a031916815260200191505b509550505050505060405180910390a1505050505050565b828054600181600116156101000203166002900490600052602060002090601f016020900481019282601f106114dd57805160ff191683800117855561150b565b8280016001018555821561150b579182015b8281111561150a5782518255916020019190600101906114ef565b5b509050611518919061151c565b5090565b61153e91905b8082111561153a576000816000905550600101611522565b5090565b9056fea265627a7a723158204cdf23652204c75a4411379fde8b1905f0376f975bd871be4ffd21d4342a9b9c64736f6c63430005100032",
  "source": "pragma solidity >=0.4.25 <0.7.0;\r\n\r\nimport \"./AnimalLand.sol\";\r\nimport \"./StringUtils.sol\";   //Librairy to compare two strings\r\n\r\ncontract Offspring is AnimalLand{\r\n\r\n    mapping(uint256 => bool ) ableToOffspring;\r\n\r\n    /*\r\n    ** Declare the offspring of two animals.\r\n    **In the first time we check if the two animals are in the same type of animal (cat,dog,..) and with different sexe.\r\n    */\r\n\r\n    function BreedAnimal(uint256 _animalId,uint256 _animalId2) public {\r\n        require(isAbleToOffspring(_animalId)==true);\r\n        require(isAbleToOffspring(_animalId2)==true);\r\n        require(StringUtils.equal(animals[_animalId].tipe,animals[_animalId2].tipe));\r\n        require(StringUtils.equal(animals[_animalId].sexe,animals[_animalId2].sexe));\r\n        declareAnimal(animals[_animalId].tipe,animals[_animalId2].sexe,string(abi.encodePacked(animals[_animalId].name,animals[_animalId2].name)),animals[_animalId2].color,animals[_animalId].nb_paws);\r\n    }\r\n\r\n\r\n    /*\r\n    **Breeders able to declare the availability of offspring of his animal.\r\n    */\r\n\r\n    function readyToOffspring(uint256 _animalId) public {\r\n        require(animalToOwner[_animalId]==msg.sender);\r\n        ableToOffspring[_animalId]=true;\r\n    }\r\n\r\n\r\n    /*\r\n    **Schow if the animal is in the list of offspring.\r\n    */\r\n\r\n    function isAbleToOffspring(uint256 _animalId) public view returns(bool) {\r\n        return ableToOffspring[_animalId];\r\n    }\r\n}",
  "sourcePath": "C:\\Users\\Miloj\\TD6-Blockchain\\contracts\\Offspring.sol",
  "compiler": {
    "name": "solc",
    "version": "0.5.16+commit.9c3226ce.Emscripten.clang"
  },
  "schemaVersion": "3.0.23",
  "updatedAt": "2020-03-10T09:31:42.292Z",
  "devdoc": {
    "methods": {}
  },
  "userdoc": {
    "methods": {
      "isABreeder(address)": {
        "notice": "Check if an address is in the breeder list."
      },
      "registerBreeder(address)": {
        "notice": "Add an address in the breeder list. "
      },
      "removeBreeder(address)": {
        "notice": "Remove an address from the breeder list. "
      }
    }
  }
}